{
  "contractName": "DemoNft",
  "abi": [
    {
      "inputs": [],
      "stateMutability": "nonpayable",
      "type": "constructor"
    },
    {
      "anonymous": false,
      "inputs": [
        {
          "indexed": true,
          "internalType": "address",
          "name": "owner",
          "type": "address"
        },
        {
          "indexed": true,
          "internalType": "address",
          "name": "approved",
          "type": "address"
        },
        {
          "indexed": true,
          "internalType": "uint256",
          "name": "tokenId",
          "type": "uint256"
        }
      ],
      "name": "Approval",
      "type": "event"
    },
    {
      "anonymous": false,
      "inputs": [
        {
          "indexed": true,
          "internalType": "address",
          "name": "owner",
          "type": "address"
        },
        {
          "indexed": true,
          "internalType": "address",
          "name": "operator",
          "type": "address"
        },
        {
          "indexed": false,
          "internalType": "bool",
          "name": "approved",
          "type": "bool"
        }
      ],
      "name": "ApprovalForAll",
      "type": "event"
    },
    {
      "anonymous": false,
      "inputs": [
        {
          "indexed": true,
          "internalType": "address",
          "name": "from",
          "type": "address"
        },
        {
          "indexed": true,
          "internalType": "address",
          "name": "to",
          "type": "address"
        },
        {
          "indexed": true,
          "internalType": "uint256",
          "name": "tokenId",
          "type": "uint256"
        }
      ],
      "name": "Transfer",
      "type": "event"
    },
    {
      "inputs": [
        {
          "internalType": "address",
          "name": "to",
          "type": "address"
        },
        {
          "internalType": "uint256",
          "name": "tokenId",
          "type": "uint256"
        }
      ],
      "name": "approve",
      "outputs": [],
      "stateMutability": "nonpayable",
      "type": "function"
    },
    {
      "inputs": [
        {
          "internalType": "address",
          "name": "owner",
          "type": "address"
        }
      ],
      "name": "balanceOf",
      "outputs": [
        {
          "internalType": "uint256",
          "name": "",
          "type": "uint256"
        }
      ],
      "stateMutability": "view",
      "type": "function",
      "constant": true
    },
    {
      "inputs": [
        {
          "internalType": "uint256",
          "name": "tokenId",
          "type": "uint256"
        }
      ],
      "name": "getApproved",
      "outputs": [
        {
          "internalType": "address",
          "name": "",
          "type": "address"
        }
      ],
      "stateMutability": "view",
      "type": "function",
      "constant": true
    },
    {
      "inputs": [
        {
          "internalType": "address",
          "name": "owner",
          "type": "address"
        },
        {
          "internalType": "address",
          "name": "operator",
          "type": "address"
        }
      ],
      "name": "isApprovedForAll",
      "outputs": [
        {
          "internalType": "bool",
          "name": "",
          "type": "bool"
        }
      ],
      "stateMutability": "view",
      "type": "function",
      "constant": true
    },
    {
      "inputs": [],
      "name": "name",
      "outputs": [
        {
          "internalType": "string",
          "name": "",
          "type": "string"
        }
      ],
      "stateMutability": "view",
      "type": "function",
      "constant": true
    },
    {
      "inputs": [
        {
          "internalType": "uint256",
          "name": "tokenId",
          "type": "uint256"
        }
      ],
      "name": "ownerOf",
      "outputs": [
        {
          "internalType": "address",
          "name": "",
          "type": "address"
        }
      ],
      "stateMutability": "view",
      "type": "function",
      "constant": true
    },
    {
      "inputs": [
        {
          "internalType": "address",
          "name": "from",
          "type": "address"
        },
        {
          "internalType": "address",
          "name": "to",
          "type": "address"
        },
        {
          "internalType": "uint256",
          "name": "tokenId",
          "type": "uint256"
        }
      ],
      "name": "safeTransferFrom",
      "outputs": [],
      "stateMutability": "nonpayable",
      "type": "function"
    },
    {
      "inputs": [
        {
          "internalType": "address",
          "name": "from",
          "type": "address"
        },
        {
          "internalType": "address",
          "name": "to",
          "type": "address"
        },
        {
          "internalType": "uint256",
          "name": "tokenId",
          "type": "uint256"
        },
        {
          "internalType": "bytes",
          "name": "data",
          "type": "bytes"
        }
      ],
      "name": "safeTransferFrom",
      "outputs": [],
      "stateMutability": "nonpayable",
      "type": "function"
    },
    {
      "inputs": [
        {
          "internalType": "address",
          "name": "operator",
          "type": "address"
        },
        {
          "internalType": "bool",
          "name": "approved",
          "type": "bool"
        }
      ],
      "name": "setApprovalForAll",
      "outputs": [],
      "stateMutability": "nonpayable",
      "type": "function"
    },
    {
      "inputs": [
        {
          "internalType": "bytes4",
          "name": "interfaceId",
          "type": "bytes4"
        }
      ],
      "name": "supportsInterface",
      "outputs": [
        {
          "internalType": "bool",
          "name": "",
          "type": "bool"
        }
      ],
      "stateMutability": "view",
      "type": "function",
      "constant": true
    },
    {
      "inputs": [],
      "name": "symbol",
      "outputs": [
        {
          "internalType": "string",
          "name": "",
          "type": "string"
        }
      ],
      "stateMutability": "view",
      "type": "function",
      "constant": true
    },
    {
      "inputs": [
        {
          "internalType": "uint256",
          "name": "tokenId",
          "type": "uint256"
        }
      ],
      "name": "tokenURI",
      "outputs": [
        {
          "internalType": "string",
          "name": "",
          "type": "string"
        }
      ],
      "stateMutability": "view",
      "type": "function",
      "constant": true
    },
    {
      "inputs": [
        {
          "internalType": "address",
          "name": "from",
          "type": "address"
        },
        {
          "internalType": "address",
          "name": "to",
          "type": "address"
        },
        {
          "internalType": "uint256",
          "name": "tokenId",
          "type": "uint256"
        }
      ],
      "name": "transferFrom",
      "outputs": [],
      "stateMutability": "nonpayable",
      "type": "function"
    },
    {
      "inputs": [
        {
          "internalType": "address",
          "name": "_account",
          "type": "address"
        },
        {
          "internalType": "string",
          "name": "_tokenSymbol",
          "type": "string"
        }
      ],
      "name": "mint",
      "outputs": [
        {
          "internalType": "uint256",
          "name": "",
          "type": "uint256"
        }
      ],
      "stateMutability": "nonpayable",
      "type": "function"
    },
    {
      "inputs": [
        {
          "internalType": "address",
          "name": "_account",
          "type": "address"
        }
      ],
      "name": "obtainWinnerToken",
      "outputs": [
        {
          "internalType": "uint256",
          "name": "",
          "type": "uint256"
        }
      ],
      "stateMutability": "nonpayable",
      "type": "function"
    },
    {
      "inputs": [
        {
          "internalType": "address",
          "name": "_account",
          "type": "address"
        },
        {
          "internalType": "string",
          "name": "_tokenSymbol",
          "type": "string"
        }
      ],
      "name": "buyToken",
      "outputs": [],
      "stateMutability": "payable",
      "type": "function",
      "payable": true
    },
    {
      "inputs": [],
      "name": "getAllTokens",
      "outputs": [
        {
          "components": [
            {
              "internalType": "uint256",
              "name": "id",
              "type": "uint256"
            },
            {
              "internalType": "string",
              "name": "tokenSymbol",
              "type": "string"
            },
            {
              "internalType": "address",
              "name": "owner",
              "type": "address"
            }
          ],
          "internalType": "struct DemoNft.Token[]",
          "name": "",
          "type": "tuple[]"
        }
      ],
      "stateMutability": "view",
      "type": "function",
      "constant": true
    },
    {
      "inputs": [
        {
          "internalType": "address",
          "name": "_account",
          "type": "address"
        }
      ],
      "name": "getAllTokensOf",
      "outputs": [
        {
          "components": [
            {
              "internalType": "uint256",
              "name": "id",
              "type": "uint256"
            },
            {
              "internalType": "string",
              "name": "tokenSymbol",
              "type": "string"
            },
            {
              "internalType": "address",
              "name": "owner",
              "type": "address"
            }
          ],
          "internalType": "struct DemoNft.Token[]",
          "name": "",
          "type": "tuple[]"
        }
      ],
      "stateMutability": "view",
      "type": "function",
      "constant": true
    },
    {
      "inputs": [
        {
          "internalType": "string",
          "name": "_symbol",
          "type": "string"
        }
      ],
      "name": "getTokensInfo",
      "outputs": [
        {
          "components": [
            {
              "internalType": "string",
              "name": "name",
              "type": "string"
            },
            {
              "internalType": "string",
              "name": "symbol",
              "type": "string"
            },
            {
              "internalType": "string",
              "name": "imageUrl",
              "type": "string"
            },
            {
              "internalType": "uint8",
              "name": "availableQuantity",
              "type": "uint8"
            },
            {
              "internalType": "uint256",
              "name": "priceInEthers",
              "type": "uint256"
            }
          ],
          "internalType": "struct DemoNft.TokenInfo",
          "name": "",
          "type": "tuple"
        }
      ],
      "stateMutability": "view",
      "type": "function",
      "constant": true
    },
    {
      "inputs": [],
      "name": "getWinner",
      "outputs": [
        {
          "internalType": "address",
          "name": "",
          "type": "address"
        }
      ],
      "stateMutability": "view",
      "type": "function",
      "constant": true
    }
  ],
  "bytecode": "0x60806040523480156200001157600080fd5b506040518060400160405280600781526020017f44656d6f4e6674000000000000000000000000000000000000000000000000008152506040518060400160405280600381526020017f44454d000000000000000000000000000000000000000000000000000000000081525081600090816200008f9190620008bd565b508060019081620000a19190620008bd565b5050506040518060a001604052806040518060400160405280600781526020017f466f78206e66740000000000000000000000000000000000000000000000000081525081526020016040518060400160405280600381526020017f464f58000000000000000000000000000000000000000000000000000000000081525081526020016040518060400160405280600b81526020017f666f782d6e66742e706e670000000000000000000000000000000000000000008152508152602001600260ff168152602001674563918244f4000081525060076040516200018690620009ff565b90815260200160405180910390206000820151816000019081620001ab9190620008bd565b506020820151816001019081620001c39190620008bd565b506040820151816002019081620001db9190620008bd565b5060608201518160030160006101000a81548160ff021916908360ff160217905550608082015181600401559050506040518060a001604052806040518060400160405280600b81526020017f4b696e64726564206e667400000000000000000000000000000000000000000081525081526020016040518060400160405280600381526020017f4b494e000000000000000000000000000000000000000000000000000000000081525081526020016040518060400160405280600f81526020017f6b696e647265642d6e66742e706e6700000000000000000000000000000000008152508152602001600a60ff168152602001673782dace9d9000008152506007604051620002ec9062000a66565b90815260200160405180910390206000820151816000019081620003119190620008bd565b506020820151816001019081620003299190620008bd565b506040820151816002019081620003419190620008bd565b5060608201518160030160006101000a81548160ff021916908360ff160217905550608082015181600401559050506040518060a001604052806040518060400160405280600981526020017f4a61696e61206e6674000000000000000000000000000000000000000000000081525081526020016040518060400160405280600381526020017f4a4149000000000000000000000000000000000000000000000000000000000081525081526020016040518060400160405280600d81526020017f6a61696e612d6e66742e706e67000000000000000000000000000000000000008152508152602001600a60ff168152602001676124fee993bc00008152506007604051620004529062000acd565b90815260200160405180910390206000820151816000019081620004779190620008bd565b5060208201518160010190816200048f9190620008bd565b506040820151816002019081620004a79190620008bd565b5060608201518160030160006101000a81548160ff021916908360ff160217905550608082015181600401559050506040518060a001604052806040518060400160405280600e81526020017f57696e6e6572206f662047616d6500000000000000000000000000000000000081525081526020016040518060400160405280600381526020017f57494e000000000000000000000000000000000000000000000000000000000081525081526020016040518060400160405280600e81526020017f77696e6e65722d6e66742e706e670000000000000000000000000000000000008152508152602001600160ff16815260200168056bc75e2d631000008152506007604051620005b99062000b34565b90815260200160405180910390206000820151816000019081620005de9190620008bd565b506020820151816001019081620005f69190620008bd565b5060408201518160020190816200060e9190620008bd565b5060608201518160030160006101000a81548160ff021916908360ff1602179055506080820151816004015590505062000b4b565b600081519050919050565b7f4e487b7100000000000000000000000000000000000000000000000000000000600052604160045260246000fd5b7f4e487b7100000000000000000000000000000000000000000000000000000000600052602260045260246000fd5b60006002820490506001821680620006c557607f821691505b602082108103620006db57620006da6200067d565b5b50919050565b60008190508160005260206000209050919050565b60006020601f8301049050919050565b600082821b905092915050565b600060088302620007457fffffffffffffffffffffffffffffffffffffffffffffffffffffffffffffffff8262000706565b62000751868362000706565b95508019841693508086168417925050509392505050565b6000819050919050565b6000819050919050565b60006200079e62000798620007928462000769565b62000773565b62000769565b9050919050565b6000819050919050565b620007ba836200077d565b620007d2620007c982620007a5565b84845462000713565b825550505050565b600090565b620007e9620007da565b620007f6818484620007af565b505050565b5b818110156200081e5762000812600082620007df565b600181019050620007fc565b5050565b601f8211156200086d576200083781620006e1565b6200084284620006f6565b8101602085101562000852578190505b6200086a6200086185620006f6565b830182620007fb565b50505b505050565b600082821c905092915050565b6000620008926000198460080262000872565b1980831691505092915050565b6000620008ad83836200087f565b9150826002028217905092915050565b620008c88262000643565b67ffffffffffffffff811115620008e457620008e36200064e565b5b620008f08254620006ac565b620008fd82828562000822565b600060209050601f83116001811462000935576000841562000920578287015190505b6200092c85826200089f565b8655506200099c565b601f1984166200094586620006e1565b60005b828110156200096f5784890151825560018201915060208501945060208101905062000948565b868310156200098f57848901516200098b601f8916826200087f565b8355505b6001600288020188555050505b505050505050565b600081905092915050565b7f464f580000000000000000000000000000000000000000000000000000000000600082015250565b6000620009e7600383620009a4565b9150620009f482620009af565b600382019050919050565b600062000a0c82620009d8565b9150819050919050565b7f4b494e0000000000000000000000000000000000000000000000000000000000600082015250565b600062000a4e600383620009a4565b915062000a5b8262000a16565b600382019050919050565b600062000a738262000a3f565b9150819050919050565b7f4a41490000000000000000000000000000000000000000000000000000000000600082015250565b600062000ab5600383620009a4565b915062000ac28262000a7d565b600382019050919050565b600062000ada8262000aa6565b9150819050919050565b7f57494e0000000000000000000000000000000000000000000000000000000000600082015250565b600062000b1c600383620009a4565b915062000b298262000ae4565b600382019050919050565b600062000b418262000b0d565b9150819050919050565b613fb68062000b5b6000396000f3fe60806040526004361061011f5760003560e01c80636f0e800c116100a0578063b0dfa98e11610064578063b0dfa98e1461041f578063b88d4fde1461043b578063c87b56dd14610464578063d0def521146104a1578063e985e9c5146104de5761011f565b80636f0e800c1461032657806370a08231146103635780638e7ea5b2146103a057806395d89b41146103cb578063a22cb465146103f65761011f565b80632a5c792a116100e75780632a5c792a1461021b57806342842e0e146102465780636044d68e1461026f57806361faf143146102ac5780636352211e146102e95761011f565b806301ffc9a71461012457806306fdde0314610161578063081812fc1461018c578063095ea7b3146101c957806323b872dd146101f2575b600080fd5b34801561013057600080fd5b5061014b600480360381019061014691906128a1565b61051b565b60405161015891906128e9565b60405180910390f35b34801561016d57600080fd5b506101766105fd565b6040516101839190612994565b60405180910390f35b34801561019857600080fd5b506101b360048036038101906101ae91906129ec565b61068f565b6040516101c09190612a5a565b60405180910390f35b3480156101d557600080fd5b506101f060048036038101906101eb9190612aa1565b6106d5565b005b3480156101fe57600080fd5b5061021960048036038101906102149190612ae1565b6107ec565b005b34801561022757600080fd5b5061023061084c565b60405161023d9190612cae565b60405180910390f35b34801561025257600080fd5b5061026d60048036038101906102689190612ae1565b61099d565b005b34801561027b57600080fd5b5061029660048036038101906102919190612e05565b6109bd565b6040516102a39190612eee565b60405180910390f35b3480156102b857600080fd5b506102d360048036038101906102ce9190612f10565b610bd2565b6040516102e09190612cae565b60405180910390f35b3480156102f557600080fd5b50610310600480360381019061030b91906129ec565b610f28565b60405161031d9190612a5a565b60405180910390f35b34801561033257600080fd5b5061034d60048036038101906103489190612f10565b610fd9565b60405161035a9190612f4c565b60405180910390f35b34801561036f57600080fd5b5061038a60048036038101906103859190612f10565b611541565b6040516103979190612f4c565b60405180910390f35b3480156103ac57600080fd5b506103b56115f8565b6040516103c29190612a5a565b60405180910390f35b3480156103d757600080fd5b506103e06116ef565b6040516103ed9190612994565b60405180910390f35b34801561040257600080fd5b5061041d60048036038101906104189190612f93565b611781565b005b61043960048036038101906104349190612fd3565b611797565b005b34801561044757600080fd5b50610462600480360381019061045d91906130d0565b6117d4565b005b34801561047057600080fd5b5061048b600480360381019061048691906129ec565b611836565b6040516104989190612994565b60405180910390f35b3480156104ad57600080fd5b506104c860048036038101906104c39190612fd3565b61189e565b6040516104d59190612f4c565b60405180910390f35b3480156104ea57600080fd5b5061050560048036038101906105009190613153565b611a8b565b60405161051291906128e9565b60405180910390f35b60007f80ac58cd000000000000000000000000000000000000000000000000000000007bffffffffffffffffffffffffffffffffffffffffffffffffffffffff1916827bffffffffffffffffffffffffffffffffffffffffffffffffffffffff191614806105e657507f5b5e139f000000000000000000000000000000000000000000000000000000007bffffffffffffffffffffffffffffffffffffffffffffffffffffffff1916827bffffffffffffffffffffffffffffffffffffffffffffffffffffffff1916145b806105f657506105f582611b1f565b5b9050919050565b60606000805461060c906131c2565b80601f0160208091040260200160405190810160405280929190818152602001828054610638906131c2565b80156106855780601f1061065a57610100808354040283529160200191610685565b820191906000526020600020905b81548152906001019060200180831161066857829003601f168201915b5050505050905090565b600061069a82611b89565b6004600083815260200190815260200160002060009054906101000a900473ffffffffffffffffffffffffffffffffffffffff169050919050565b60006106e082610f28565b90508073ffffffffffffffffffffffffffffffffffffffff168373ffffffffffffffffffffffffffffffffffffffff1603610750576040517f08c379a000000000000000000000000000000000000000000000000000000000815260040161074790613265565b60405180910390fd5b8073ffffffffffffffffffffffffffffffffffffffff1661076f611bd4565b73ffffffffffffffffffffffffffffffffffffffff16148061079e575061079d81610798611bd4565b611a8b565b5b6107dd576040517f08c379a00000000000000000000000000000000000000000000000000000000081526004016107d4906132f7565b60405180910390fd5b6107e78383611bdc565b505050565b6107fd6107f7611bd4565b82611c95565b61083c576040517f08c379a000000000000000000000000000000000000000000000000000000000815260040161083390613389565b60405180910390fd5b610847838383611d2a565b505050565b60606008805480602002602001604051908101604052809291908181526020016000905b828210156109945783829060005260206000209060030201604051806060016040529081600082015481526020016001820180546108ad906131c2565b80601f01602080910402602001604051908101604052809291908181526020018280546108d9906131c2565b80156109265780601f106108fb57610100808354040283529160200191610926565b820191906000526020600020905b81548152906001019060200180831161090957829003601f168201915b505050505081526020016002820160009054906101000a900473ffffffffffffffffffffffffffffffffffffffff1673ffffffffffffffffffffffffffffffffffffffff1673ffffffffffffffffffffffffffffffffffffffff168152505081526020019060010190610870565b50505050905090565b6109b8838383604051806020016040528060008152506117d4565b505050565b6109c561276f565b6007826040516109d591906133e5565b90815260200160405180910390206040518060a00160405290816000820180546109fe906131c2565b80601f0160208091040260200160405190810160405280929190818152602001828054610a2a906131c2565b8015610a775780601f10610a4c57610100808354040283529160200191610a77565b820191906000526020600020905b815481529060010190602001808311610a5a57829003601f168201915b50505050508152602001600182018054610a90906131c2565b80601f0160208091040260200160405190810160405280929190818152602001828054610abc906131c2565b8015610b095780601f10610ade57610100808354040283529160200191610b09565b820191906000526020600020905b815481529060010190602001808311610aec57829003601f168201915b50505050508152602001600282018054610b22906131c2565b80601f0160208091040260200160405190810160405280929190818152602001828054610b4e906131c2565b8015610b9b5780601f10610b7057610100808354040283529160200191610b9b565b820191906000526020600020905b815481529060010190602001808311610b7e57829003601f168201915b505050505081526020016003820160009054906101000a900460ff1660ff1660ff1681526020016004820154815250509050919050565b60606000805b600880549050811015610c7f5760088181548110610bf957610bf86133fc565b5b906000526020600020906003020160020160009054906101000a900473ffffffffffffffffffffffffffffffffffffffff1673ffffffffffffffffffffffffffffffffffffffff168473ffffffffffffffffffffffffffffffffffffffff1603610c6c578180610c689061345a565b9250505b8080610c779061345a565b915050610bd8565b5060008167ffffffffffffffff811115610c9c57610c9b612cda565b5b604051908082528060200260200182016040528015610cd557816020015b610cc26127a1565b815260200190600190039081610cba5790505b5090506000805b600880549050811015610f1c5760088181548110610cfd57610cfc6133fc565b5b906000526020600020906003020160020160009054906101000a900473ffffffffffffffffffffffffffffffffffffffff1673ffffffffffffffffffffffffffffffffffffffff168673ffffffffffffffffffffffffffffffffffffffff16148015610db85750604051806020016040528060008152508051906020012060088281548110610d8f57610d8e6133fc565b5b9060005260206000209060030201600101604051610dad9190613545565b604051809103902014155b15610f095760088181548110610dd157610dd06133fc565b5b906000526020600020906003020160405180606001604052908160008201548152602001600182018054610e04906131c2565b80601f0160208091040260200160405190810160405280929190818152602001828054610e30906131c2565b8015610e7d5780601f10610e5257610100808354040283529160200191610e7d565b820191906000526020600020905b815481529060010190602001808311610e6057829003601f168201915b505050505081526020016002820160009054906101000a900473ffffffffffffffffffffffffffffffffffffffff1673ffffffffffffffffffffffffffffffffffffffff1673ffffffffffffffffffffffffffffffffffffffff1681525050838381518110610eef57610eee6133fc565b5b60200260200101819052508180610f059061345a565b9250505b8080610f149061345a565b915050610cdc565b50819350505050919050565b6000806002600084815260200190815260200160002060009054906101000a900473ffffffffffffffffffffffffffffffffffffffff169050600073ffffffffffffffffffffffffffffffffffffffff168173ffffffffffffffffffffffffffffffffffffffff1603610fd0576040517f08c379a0000000000000000000000000000000000000000000000000000000008152600401610fc7906135a8565b60405180910390fd5b80915050919050565b6000806007604051610fea90613614565b908152602001604051809103902060030160009054906101000a900460ff1660ff161161101657600080fd5b600061102183610bd2565b90506000600367ffffffffffffffff8111156110405761103f612cda565b5b60405190808252806020026020018201604052801561106e5781602001602082028036833780820191505090505b50905060005b60038160ff1610156110d6577fffffffffffffffffffffffffffffffffffffffffffffffffffffffffffffffff828260ff16815181106110b7576110b66133fc565b5b60200260200101818152505080806110ce90613629565b915050611074565b5060005b82518110156112f3576040518060400160405280600381526020017f464f58000000000000000000000000000000000000000000000000000000000081525080519060200120838281518110611133576111326133fc565b5b602002602001015160200151805190602001200361118f5782818151811061115e5761115d6133fc565b5b6020026020010151600001518260008151811061117e5761117d6133fc565b5b602002602001018181525050611238565b6040518060400160405280600381526020017f4b494e0000000000000000000000000000000000000000000000000000000000815250805190602001208382815181106111df576111de6133fc565b5b60200260200101516020015180519060200120036112375782818151811061120a576112096133fc565b5b6020026020010151600001518260018151811061122a576112296133fc565b5b6020026020010181815250505b5b6040518060400160405280600381526020017f4a4149000000000000000000000000000000000000000000000000000000000081525080519060200120838281518110611288576112876133fc565b5b60200260200101516020015180519060200120036112e0578281815181106112b3576112b26133fc565b5b602002602001015160000151826002815181106112d3576112d26133fc565b5b6020026020010181815250505b80806112eb9061345a565b9150506110da565b5060008160008151811061130a576113096133fc565b5b60200260200101511215801561133c5750600081600181518110611331576113306133fc565b5b602002602001015112155b80156113645750600081600281518110611359576113586133fc565b5b602002602001015112155b61136d57600080fd5b60005b60038110156113af5761139c82828151811061138f5761138e6133fc565b5b6020026020010151611f90565b80806113a79061345a565b915050611370565b50600060405180606001604052806113c760066121ec565b81526020016040518060400160405280600381526020017f57494e000000000000000000000000000000000000000000000000000000000081525081526020018673ffffffffffffffffffffffffffffffffffffffff168152509050600881908060018154018082558091505060019003906000526020600020906003020160009091909190915060008201518160000155602082015181600101908161146e91906137fe565b5060408201518160020160006101000a81548173ffffffffffffffffffffffffffffffffffffffff021916908373ffffffffffffffffffffffffffffffffffffffff16021790555050506114c260066121fa565b600160076040516114d290613614565b908152602001604051809103902060030160009054906101000a900460ff166114fb91906138d0565b600760405161150990613614565b908152602001604051809103902060030160006101000a81548160ff021916908360ff16021790555080600001519350505050919050565b60008073ffffffffffffffffffffffffffffffffffffffff168273ffffffffffffffffffffffffffffffffffffffff16036115b1576040517f08c379a00000000000000000000000000000000000000000000000000000000081526004016115a890613977565b60405180910390fd5b600360008373ffffffffffffffffffffffffffffffffffffffff1673ffffffffffffffffffffffffffffffffffffffff168152602001908152602001600020549050919050565b60008060005b6008805490508110156116e7576040518060400160405280600381526020017f57494e0000000000000000000000000000000000000000000000000000000000815250805190602001206008828154811061165c5761165b6133fc565b5b906000526020600020906003020160010160405161167a9190613545565b6040518091039020036116d4576008818154811061169b5761169a6133fc565b5b906000526020600020906003020160020160009054906101000a900473ffffffffffffffffffffffffffffffffffffffff1691506116e7565b80806116df9061345a565b9150506115fe565b508091505090565b6060600180546116fe906131c2565b80601f016020809104026020016040519081016040528092919081815260200182805461172a906131c2565b80156117775780601f1061174c57610100808354040283529160200191611777565b820191906000526020600020905b81548152906001019060200180831161175a57829003601f168201915b5050505050905090565b61179361178c611bd4565b8383612210565b5050565b6007816040516117a791906133e5565b9081526020016040518091039020600401543410156117c557600080fd5b6117cf828261189e565b505050565b6117e56117df611bd4565b83611c95565b611824576040517f08c379a000000000000000000000000000000000000000000000000000000000815260040161181b90613389565b60405180910390fd5b6118308484848461237c565b50505050565b606061184182611b89565b600061184b6123d8565b9050600081511161186b5760405180602001604052806000815250611896565b80611875846123ef565b604051602001611886929190613997565b6040516020818303038152906040525b915050919050565b6000806007836040516118b191906133e5565b908152602001604051809103902060030160009054906101000a900460ff1660ff16116118dd57600080fd5b81805190602001206040518060400160405280600381526020017f57494e0000000000000000000000000000000000000000000000000000000000815250805190602001200361192c57600080fd5b6000604051806060016040528061194360066121ec565b81526020018481526020018573ffffffffffffffffffffffffffffffffffffffff16815250905060088190806001815401808255809150506001900390600052602060002090600302016000909190919091506000820151816000015560208201518160010190816119b591906137fe565b5060408201518160020160006101000a81548173ffffffffffffffffffffffffffffffffffffffff021916908373ffffffffffffffffffffffffffffffffffffffff1602179055505050611a0960066121fa565b6001600784604051611a1b91906133e5565b908152602001604051809103902060030160009054906101000a900460ff16611a4491906138d0565b600784604051611a5491906133e5565b908152602001604051809103902060030160006101000a81548160ff021916908360ff160217905550806000015191505092915050565b6000600560008473ffffffffffffffffffffffffffffffffffffffff1673ffffffffffffffffffffffffffffffffffffffff16815260200190815260200160002060008373ffffffffffffffffffffffffffffffffffffffff1673ffffffffffffffffffffffffffffffffffffffff16815260200190815260200160002060009054906101000a900460ff16905092915050565b60007f01ffc9a7000000000000000000000000000000000000000000000000000000007bffffffffffffffffffffffffffffffffffffffffffffffffffffffff1916827bffffffffffffffffffffffffffffffffffffffffffffffffffffffff1916149050919050565b611b928161254f565b611bd1576040517f08c379a0000000000000000000000000000000000000000000000000000000008152600401611bc8906135a8565b60405180910390fd5b50565b600033905090565b816004600083815260200190815260200160002060006101000a81548173ffffffffffffffffffffffffffffffffffffffff021916908373ffffffffffffffffffffffffffffffffffffffff160217905550808273ffffffffffffffffffffffffffffffffffffffff16611c4f83610f28565b73ffffffffffffffffffffffffffffffffffffffff167f8c5be1e5ebec7d5bd14f71427d1e84f3dd0314c0f7b2291e5b200ac8c7c3b92560405160405180910390a45050565b600080611ca183610f28565b90508073ffffffffffffffffffffffffffffffffffffffff168473ffffffffffffffffffffffffffffffffffffffff161480611ce35750611ce28185611a8b565b5b80611d2157508373ffffffffffffffffffffffffffffffffffffffff16611d098461068f565b73ffffffffffffffffffffffffffffffffffffffff16145b91505092915050565b8273ffffffffffffffffffffffffffffffffffffffff16611d4a82610f28565b73ffffffffffffffffffffffffffffffffffffffff1614611da0576040517f08c379a0000000000000000000000000000000000000000000000000000000008152600401611d9790613a2d565b60405180910390fd5b600073ffffffffffffffffffffffffffffffffffffffff168273ffffffffffffffffffffffffffffffffffffffff1603611e0f576040517f08c379a0000000000000000000000000000000000000000000000000000000008152600401611e0690613abf565b60405180910390fd5b611e1a8383836125bb565b611e25600082611bdc565b6001600360008573ffffffffffffffffffffffffffffffffffffffff1673ffffffffffffffffffffffffffffffffffffffff1681526020019081526020016000206000828254611e759190613adf565b925050819055506001600360008473ffffffffffffffffffffffffffffffffffffffff1673ffffffffffffffffffffffffffffffffffffffff1681526020019081526020016000206000828254611ecc9190613b13565b92505081905550816002600083815260200190815260200160002060006101000a81548173ffffffffffffffffffffffffffffffffffffffff021916908373ffffffffffffffffffffffffffffffffffffffff160217905550808273ffffffffffffffffffffffffffffffffffffffff168473ffffffffffffffffffffffffffffffffffffffff167fddf252ad1be2c89b69c2b068fc378daa952ba7f163c4a11628f55a4df523b3ef60405160405180910390a4611f8b8383836125c0565b505050565b60007fffffffffffffffffffffffffffffffffffffffffffffffffffffffffffffffff905060005b60088054905081101561200c578260088281548110611fda57611fd96133fc565b5b90600052602060002090600302016000015403611ff95780915061200c565b80806120049061345a565b915050611fb8565b50600081126121e8576001600880549050111561210257600860016008805490506120379190613adf565b81548110612048576120476133fc565b5b90600052602060002090600302016008828154811061206a576120696133fc565b5b906000526020600020906003020160008201548160000155600182018160010190816120969190613b5d565b506002820160009054906101000a900473ffffffffffffffffffffffffffffffffffffffff168160020160006101000a81548173ffffffffffffffffffffffffffffffffffffffff021916908373ffffffffffffffffffffffffffffffffffffffff1602179055509050505b600760088281548110612118576121176133fc565b5b90600052602060002090600302016001016040516121369190613cc8565b9081526020016040518091039020600301600081819054906101000a900460ff168092919061216490613629565b91906101000a81548160ff021916908360ff16021790555050600880548061218f5761218e613cdf565b5b60019003818190600052602060002090600302016000808201600090556001820160006121bc91906127d8565b6002820160006101000a81549073ffffffffffffffffffffffffffffffffffffffff0219169055505090555b5050565b600081600001549050919050565b6001816000016000828254019250508190555050565b8173ffffffffffffffffffffffffffffffffffffffff168373ffffffffffffffffffffffffffffffffffffffff160361227e576040517f08c379a000000000000000000000000000000000000000000000000000000000815260040161227590613d5a565b60405180910390fd5b80600560008573ffffffffffffffffffffffffffffffffffffffff1673ffffffffffffffffffffffffffffffffffffffff16815260200190815260200160002060008473ffffffffffffffffffffffffffffffffffffffff1673ffffffffffffffffffffffffffffffffffffffff16815260200190815260200160002060006101000a81548160ff0219169083151502179055508173ffffffffffffffffffffffffffffffffffffffff168373ffffffffffffffffffffffffffffffffffffffff167f17307eab39ab6107e8899845ad3d59bd9653f200f220920489ca2b5937696c318360405161236f91906128e9565b60405180910390a3505050565b612387848484611d2a565b612393848484846125c5565b6123d2576040517f08c379a00000000000000000000000000000000000000000000000000000000081526004016123c990613dec565b60405180910390fd5b50505050565b606060405180602001604052806000815250905090565b606060008203612436576040518060400160405280600181526020017f3000000000000000000000000000000000000000000000000000000000000000815250905061254a565b600082905060005b600082146124685780806124519061345a565b915050600a826124619190613e3b565b915061243e565b60008167ffffffffffffffff81111561248457612483612cda565b5b6040519080825280601f01601f1916602001820160405280156124b65781602001600182028036833780820191505090505b5090505b60008514612543576001826124cf9190613adf565b9150600a856124de9190613e6c565b60306124ea9190613b13565b60f81b818381518110612500576124ff6133fc565b5b60200101907effffffffffffffffffffffffffffffffffffffffffffffffffffffffffffff1916908160001a905350600a8561253c9190613e3b565b94506124ba565b8093505050505b919050565b60008073ffffffffffffffffffffffffffffffffffffffff166002600084815260200190815260200160002060009054906101000a900473ffffffffffffffffffffffffffffffffffffffff1673ffffffffffffffffffffffffffffffffffffffff1614159050919050565b505050565b505050565b60006125e68473ffffffffffffffffffffffffffffffffffffffff1661274c565b1561273f578373ffffffffffffffffffffffffffffffffffffffff1663150b7a0261260f611bd4565b8786866040518563ffffffff1660e01b81526004016126319493929190613ef2565b6020604051808303816000875af192505050801561266d57506040513d601f19601f8201168201806040525081019061266a9190613f53565b60015b6126ef573d806000811461269d576040519150601f19603f3d011682016040523d82523d6000602084013e6126a2565b606091505b5060008151036126e7576040517f08c379a00000000000000000000000000000000000000000000000000000000081526004016126de90613dec565b60405180910390fd5b805181602001fd5b63150b7a0260e01b7bffffffffffffffffffffffffffffffffffffffffffffffffffffffff1916817bffffffffffffffffffffffffffffffffffffffffffffffffffffffff191614915050612744565b600190505b949350505050565b6000808273ffffffffffffffffffffffffffffffffffffffff163b119050919050565b6040518060a00160405280606081526020016060815260200160608152602001600060ff168152602001600081525090565b60405180606001604052806000815260200160608152602001600073ffffffffffffffffffffffffffffffffffffffff1681525090565b5080546127e4906131c2565b6000825580601f106127f65750612815565b601f0160209004906000526020600020908101906128149190612818565b5b50565b5b80821115612831576000816000905550600101612819565b5090565b6000604051905090565b600080fd5b600080fd5b60007fffffffff0000000000000000000000000000000000000000000000000000000082169050919050565b61287e81612849565b811461288957600080fd5b50565b60008135905061289b81612875565b92915050565b6000602082840312156128b7576128b661283f565b5b60006128c58482850161288c565b91505092915050565b60008115159050919050565b6128e3816128ce565b82525050565b60006020820190506128fe60008301846128da565b92915050565b600081519050919050565b600082825260208201905092915050565b60005b8381101561293e578082015181840152602081019050612923565b60008484015250505050565b6000601f19601f8301169050919050565b600061296682612904565b612970818561290f565b9350612980818560208601612920565b6129898161294a565b840191505092915050565b600060208201905081810360008301526129ae818461295b565b905092915050565b6000819050919050565b6129c9816129b6565b81146129d457600080fd5b50565b6000813590506129e6816129c0565b92915050565b600060208284031215612a0257612a0161283f565b5b6000612a10848285016129d7565b91505092915050565b600073ffffffffffffffffffffffffffffffffffffffff82169050919050565b6000612a4482612a19565b9050919050565b612a5481612a39565b82525050565b6000602082019050612a6f6000830184612a4b565b92915050565b612a7e81612a39565b8114612a8957600080fd5b50565b600081359050612a9b81612a75565b92915050565b60008060408385031215612ab857612ab761283f565b5b6000612ac685828601612a8c565b9250506020612ad7858286016129d7565b9150509250929050565b600080600060608486031215612afa57612af961283f565b5b6000612b0886828701612a8c565b9350506020612b1986828701612a8c565b9250506040612b2a868287016129d7565b9150509250925092565b600081519050919050565b600082825260208201905092915050565b6000819050602082019050919050565b612b69816129b6565b82525050565b600082825260208201905092915050565b6000612b8b82612904565b612b958185612b6f565b9350612ba5818560208601612920565b612bae8161294a565b840191505092915050565b612bc281612a39565b82525050565b6000606083016000830151612be06000860182612b60565b5060208301518482036020860152612bf88282612b80565b9150506040830151612c0d6040860182612bb9565b508091505092915050565b6000612c248383612bc8565b905092915050565b6000602082019050919050565b6000612c4482612b34565b612c4e8185612b3f565b935083602082028501612c6085612b50565b8060005b85811015612c9c5784840389528151612c7d8582612c18565b9450612c8883612c2c565b925060208a01995050600181019050612c64565b50829750879550505050505092915050565b60006020820190508181036000830152612cc88184612c39565b905092915050565b600080fd5b600080fd5b7f4e487b7100000000000000000000000000000000000000000000000000000000600052604160045260246000fd5b612d128261294a565b810181811067ffffffffffffffff82111715612d3157612d30612cda565b5b80604052505050565b6000612d44612835565b9050612d508282612d09565b919050565b600067ffffffffffffffff821115612d7057612d6f612cda565b5b612d798261294a565b9050602081019050919050565b82818337600083830152505050565b6000612da8612da384612d55565b612d3a565b905082815260208101848484011115612dc457612dc3612cd5565b5b612dcf848285612d86565b509392505050565b600082601f830112612dec57612deb612cd0565b5b8135612dfc848260208601612d95565b91505092915050565b600060208284031215612e1b57612e1a61283f565b5b600082013567ffffffffffffffff811115612e3957612e38612844565b5b612e4584828501612dd7565b91505092915050565b600060ff82169050919050565b612e6481612e4e565b82525050565b600060a0830160008301518482036000860152612e878282612b80565b91505060208301518482036020860152612ea18282612b80565b91505060408301518482036040860152612ebb8282612b80565b9150506060830151612ed06060860182612e5b565b506080830151612ee36080860182612b60565b508091505092915050565b60006020820190508181036000830152612f088184612e6a565b905092915050565b600060208284031215612f2657612f2561283f565b5b6000612f3484828501612a8c565b91505092915050565b612f46816129b6565b82525050565b6000602082019050612f616000830184612f3d565b92915050565b612f70816128ce565b8114612f7b57600080fd5b50565b600081359050612f8d81612f67565b92915050565b60008060408385031215612faa57612fa961283f565b5b6000612fb885828601612a8c565b9250506020612fc985828601612f7e565b9150509250929050565b60008060408385031215612fea57612fe961283f565b5b6000612ff885828601612a8c565b925050602083013567ffffffffffffffff81111561301957613018612844565b5b61302585828601612dd7565b9150509250929050565b600067ffffffffffffffff82111561304a57613049612cda565b5b6130538261294a565b9050602081019050919050565b600061307361306e8461302f565b612d3a565b90508281526020810184848401111561308f5761308e612cd5565b5b61309a848285612d86565b509392505050565b600082601f8301126130b7576130b6612cd0565b5b81356130c7848260208601613060565b91505092915050565b600080600080608085870312156130ea576130e961283f565b5b60006130f887828801612a8c565b945050602061310987828801612a8c565b935050604061311a878288016129d7565b925050606085013567ffffffffffffffff81111561313b5761313a612844565b5b613147878288016130a2565b91505092959194509250565b6000806040838503121561316a5761316961283f565b5b600061317885828601612a8c565b925050602061318985828601612a8c565b9150509250929050565b7f4e487b7100000000000000000000000000000000000000000000000000000000600052602260045260246000fd5b600060028204905060018216806131da57607f821691505b6020821081036131ed576131ec613193565b5b50919050565b7f4552433732313a20617070726f76616c20746f2063757272656e74206f776e6560008201527f7200000000000000000000000000000000000000000000000000000000000000602082015250565b600061324f60218361290f565b915061325a826131f3565b604082019050919050565b6000602082019050818103600083015261327e81613242565b9050919050565b7f4552433732313a20617070726f76652063616c6c6572206973206e6f7420746f60008201527f6b656e206f776e6572206e6f7220617070726f76656420666f7220616c6c0000602082015250565b60006132e1603e8361290f565b91506132ec82613285565b604082019050919050565b60006020820190508181036000830152613310816132d4565b9050919050565b7f4552433732313a2063616c6c6572206973206e6f7420746f6b656e206f776e6560008201527f72206e6f7220617070726f766564000000000000000000000000000000000000602082015250565b6000613373602e8361290f565b915061337e82613317565b604082019050919050565b600060208201905081810360008301526133a281613366565b9050919050565b600081905092915050565b60006133bf82612904565b6133c981856133a9565b93506133d9818560208601612920565b80840191505092915050565b60006133f182846133b4565b915081905092915050565b7f4e487b7100000000000000000000000000000000000000000000000000000000600052603260045260246000fd5b7f4e487b7100000000000000000000000000000000000000000000000000000000600052601160045260246000fd5b6000613465826129b6565b91507fffffffffffffffffffffffffffffffffffffffffffffffffffffffffffffffff82036134975761349661342b565b5b600182019050919050565b600081905092915050565b60008190508160005260206000209050919050565b600081546134cf816131c2565b6134d981866134a2565b945060018216600081146134f457600181146135095761353c565b60ff198316865281151582028601935061353c565b613512856134ad565b60005b8381101561353457815481890152600182019150602081019050613515565b838801955050505b50505092915050565b600061355182846134c2565b915081905092915050565b7f4552433732313a20696e76616c696420746f6b656e2049440000000000000000600082015250565b600061359260188361290f565b915061359d8261355c565b602082019050919050565b600060208201905081810360008301526135c181613585565b9050919050565b7f57494e0000000000000000000000000000000000000000000000000000000000600082015250565b60006135fe6003836133a9565b9150613609826135c8565b600382019050919050565b600061361f826135f1565b9150819050919050565b600061363482612e4e565b915060ff82036136475761364661342b565b5b600182019050919050565b60008190508160005260206000209050919050565b60006020601f8301049050919050565b600082821b905092915050565b6000600883026136b47fffffffffffffffffffffffffffffffffffffffffffffffffffffffffffffffff82613677565b6136be8683613677565b95508019841693508086168417925050509392505050565b6000819050919050565b60006136fb6136f66136f1846129b6565b6136d6565b6129b6565b9050919050565b6000819050919050565b613715836136e0565b61372961372182613702565b848454613684565b825550505050565b600090565b61373e613731565b61374981848461370c565b505050565b5b8181101561376d57613762600082613736565b60018101905061374f565b5050565b601f8211156137b25761378381613652565b61378c84613667565b8101602085101561379b578190505b6137af6137a785613667565b83018261374e565b50505b505050565b600082821c905092915050565b60006137d5600019846008026137b7565b1980831691505092915050565b60006137ee83836137c4565b9150826002028217905092915050565b61380782612904565b67ffffffffffffffff8111156138205761381f612cda565b5b61382a82546131c2565b613835828285613771565b600060209050601f8311600181146138685760008415613856578287015190505b61386085826137e2565b8655506138c8565b601f19841661387686613652565b60005b8281101561389e57848901518255600182019150602085019450602081019050613879565b868310156138bb57848901516138b7601f8916826137c4565b8355505b6001600288020188555050505b505050505050565b60006138db82612e4e565b91506138e683612e4e565b9250828203905060ff8111156138ff576138fe61342b565b5b92915050565b7f4552433732313a2061646472657373207a65726f206973206e6f74206120766160008201527f6c6964206f776e65720000000000000000000000000000000000000000000000602082015250565b600061396160298361290f565b915061396c82613905565b604082019050919050565b6000602082019050818103600083015261399081613954565b9050919050565b60006139a382856133b4565b91506139af82846133b4565b91508190509392505050565b7f4552433732313a207472616e736665722066726f6d20696e636f72726563742060008201527f6f776e6572000000000000000000000000000000000000000000000000000000602082015250565b6000613a1760258361290f565b9150613a22826139bb565b604082019050919050565b60006020820190508181036000830152613a4681613a0a565b9050919050565b7f4552433732313a207472616e7366657220746f20746865207a65726f2061646460008201527f7265737300000000000000000000000000000000000000000000000000000000602082015250565b6000613aa960248361290f565b9150613ab482613a4d565b604082019050919050565b60006020820190508181036000830152613ad881613a9c565b9050919050565b6000613aea826129b6565b9150613af5836129b6565b9250828203905081811115613b0d57613b0c61342b565b5b92915050565b6000613b1e826129b6565b9150613b29836129b6565b9250828201905080821115613b4157613b4061342b565b5b92915050565b600081549050613b56816131c2565b9050919050565b818103613b6b575050613c43565b613b7482613b47565b67ffffffffffffffff811115613b8d57613b8c612cda565b5b613b9782546131c2565b613ba2828285613771565b6000601f831160018114613bd15760008415613bbf578287015490505b613bc985826137e2565b865550613c3c565b601f198416613bdf87613652565b9650613bea86613652565b60005b82811015613c1257848901548255600182019150600185019450602081019050613bed565b86831015613c2f5784890154613c2b601f8916826137c4565b8355505b6001600288020188555050505b5050505050505b565b60008154613c52816131c2565b613c5c81866133a9565b94506001821660008114613c775760018114613c8c57613cbf565b60ff1983168652811515820286019350613cbf565b613c9585613652565b60005b83811015613cb757815481890152600182019150602081019050613c98565b838801955050505b50505092915050565b6000613cd48284613c45565b915081905092915050565b7f4e487b7100000000000000000000000000000000000000000000000000000000600052603160045260246000fd5b7f4552433732313a20617070726f766520746f2063616c6c657200000000000000600082015250565b6000613d4460198361290f565b9150613d4f82613d0e565b602082019050919050565b60006020820190508181036000830152613d7381613d37565b9050919050565b7f4552433732313a207472616e7366657220746f206e6f6e20455243373231526560008201527f63656976657220696d706c656d656e7465720000000000000000000000000000602082015250565b6000613dd660328361290f565b9150613de182613d7a565b604082019050919050565b60006020820190508181036000830152613e0581613dc9565b9050919050565b7f4e487b7100000000000000000000000000000000000000000000000000000000600052601260045260246000fd5b6000613e46826129b6565b9150613e51836129b6565b925082613e6157613e60613e0c565b5b828204905092915050565b6000613e77826129b6565b9150613e82836129b6565b925082613e9257613e91613e0c565b5b828206905092915050565b600081519050919050565b600082825260208201905092915050565b6000613ec482613e9d565b613ece8185613ea8565b9350613ede818560208601612920565b613ee78161294a565b840191505092915050565b6000608082019050613f076000830187612a4b565b613f146020830186612a4b565b613f216040830185612f3d565b8181036060830152613f338184613eb9565b905095945050505050565b600081519050613f4d81612875565b92915050565b600060208284031215613f6957613f6861283f565b5b6000613f7784828501613f3e565b9150509291505056fea2646970667358221220c41fd98cef74f15ec804dd0ff475a0f8f72080d47b31d980916d0ca0d0307f0364736f6c63430008100033",
  "immutableReferences": {},
  "source": "// SPDX-License-Identifier: MIT\npragma solidity ^0.8.7;\n\n// Dependencie: @openzeppelin/contracts\n// IMPORTANTE - Puede tirar error de path, pero en realidad funciona, solamente tiene problemas con el scope de vscode\nimport \"@openzeppelin/contracts/token/ERC721/ERC721.sol\";\nimport \"@openzeppelin/contracts/utils/Counters.sol\";\n\ncontract DemoNft is ERC721 {\n\n    // Token id\n    using Counters for Counters.Counter;\n    Counters.Counter private _tokenIdCounter;\n\n    // Token information\n    struct TokenInfo {\n        string name;\n        string symbol;\n        string imageUrl;\n        uint8 availableQuantity;\n        uint256 priceInEthers;\n    }\n    mapping (string => TokenInfo)  tokensInfo;\n\n    // List of existent tokens\n    struct Token {\n        uint256 id;\n        string tokenSymbol;\n        address owner;\n    }\n    Token [] private tokens;\n\n\n    constructor() ERC721(\"DemoNft\", \"DEM\") {\n        // name, symbol, imageUrl, availableQuantity, priceInEthers\n        tokensInfo[\"FOX\"] = TokenInfo(\"Fox nft\", \"FOX\", \"fox-nft.png\", 2, 5 ether);\n        tokensInfo[\"KIN\"] = TokenInfo(\"Kindred nft\", \"KIN\", \"kindred-nft.png\", 10, 4 ether);\n        tokensInfo[\"JAI\"] = TokenInfo(\"Jaina nft\", \"JAI\", \"jaina-nft.png\", 10, 7 ether);\n        tokensInfo[\"WIN\"] = TokenInfo(\"Winner of Game\", \"WIN\", \"winner-nft.png\", 1, 100 ether);\n    }\n\n    // METHODS\n\n    function _removeToken (uint256 _id) internal {\n        int indexOfId = -1;\n        for (uint256 i = 0; i < tokens.length; i++) {\n            if (tokens[i].id == _id) {\n                indexOfId = int256(i);\n                break;\n            }\n        }\n        if (indexOfId >= 0) {\n            if (tokens.length > 1) tokens[uint256(indexOfId)] = tokens[tokens.length - 1];\n            tokensInfo[tokens[uint256(indexOfId)].tokenSymbol].availableQuantity++;\n            tokens.pop();\n        }\n    }\n\n    function mint (address _account, string memory _tokenSymbol) public returns(uint256) {\n        require(tokensInfo[_tokenSymbol].availableQuantity > 0);\n        require(keccak256(bytes(\"WIN\")) != keccak256(bytes(_tokenSymbol)));\n\n        // Create new token\n        Token memory newToken = Token(_tokenIdCounter.current(), _tokenSymbol, _account);\n        // Save token\n        tokens.push(newToken);\n\n        // Increment counter\n        _tokenIdCounter.increment();\n        // Decrease available token quantity\n        tokensInfo[_tokenSymbol].availableQuantity = tokensInfo[_tokenSymbol].availableQuantity - 1;\n\n        return newToken.id;\n    }\n\n    function obtainWinnerToken (address _account) public returns (uint256) {\n        require(tokensInfo[\"WIN\"].availableQuantity > 0);\n        Token[] memory tokensOfAccount = getAllTokensOf(_account);\n\n        int256[] memory tokensIds = new int256[](3);\n        for (uint8 i = 0; i < 3; i++) tokensIds[i] = -1;\n        \n        for (uint256 i = 0; i < tokensOfAccount.length; i++) {\n            if (keccak256(bytes(tokensOfAccount[i].tokenSymbol)) == keccak256(bytes(\"FOX\"))) tokensIds[0] = int256(tokensOfAccount[i].id);\n            else if (keccak256(bytes(tokensOfAccount[i].tokenSymbol)) == keccak256(bytes(\"KIN\"))) tokensIds[1] = int256(tokensOfAccount[i].id);\n            if (keccak256(bytes(tokensOfAccount[i].tokenSymbol)) == keccak256(bytes(\"JAI\"))) tokensIds[2] = int256(tokensOfAccount[i].id);\n        }\n\n        require(tokensIds[0] >= 0 && tokensIds[1] >= 0 && tokensIds[2] >= 0);\n        for (uint i = 0; i < 3; i++) _removeToken(uint256(tokensIds[i]));\n        \n        // Create new token\n        Token memory newToken = Token(_tokenIdCounter.current(), \"WIN\", _account);\n        // Save token\n        tokens.push(newToken);\n\n        // Increment counter\n        _tokenIdCounter.increment();\n        // Decrease available token quantity\n        tokensInfo[\"WIN\"].availableQuantity = tokensInfo[\"WIN\"].availableQuantity - 1;\n        return newToken.id;\n    }\n\n    function buyToken (address _account, string memory _tokenSymbol) public payable {\n        require(msg.value >= tokensInfo[_tokenSymbol].priceInEthers);\n        mint(_account, _tokenSymbol);\n    }\n\n    // GETTERS\n\n    function getAllTokens () public view returns(Token[] memory) {\n        return tokens;\n    }\n\n    function getAllTokensOf (address _account) public view returns (Token[] memory) {\n        // Count match quantity\n        uint256 countOfUserTokens = 0;\n        for (uint i = 0; i < tokens.length; i++) if (_account == tokens[i].owner) countOfUserTokens++;\n        \n        // Make new array with tokens of _account\n        Token[] memory tokensOfAccount = new Token[](countOfUserTokens);\n        uint256 indexOfTokensOfAccount = 0;\n        for (uint i = 0; i < tokens.length; i++) if (_account == tokens[i].owner && keccak256(bytes(tokens[i].tokenSymbol)) != keccak256(bytes(\"\"))) {\n          tokensOfAccount[indexOfTokensOfAccount] = tokens[i];\n          indexOfTokensOfAccount++;\n        }\n\n        return tokensOfAccount;\n    }\n\n    function getTokensInfo (string memory _symbol) public view returns(TokenInfo memory) {\n      return tokensInfo[_symbol];\n    }\n\n    function getWinner () public view returns (address) {\n        address winner;\n        for (uint256 i = 0; i < tokens.length; i++) if (keccak256(bytes(tokens[i].tokenSymbol)) == keccak256(bytes(\"WIN\"))) {\n            winner = tokens[i].owner;\n            break;\n        }\n        return winner;\n    \n    }\n}",
  "sourcePath": "/workspaces/DEMO/nft-contract/contracts/My-nft-contract.sol",
  "compiler": {
    "name": "solc",
    "version": "0.8.16+commit.07a7930e.Emscripten.clang"
  },
  "schemaVersion": "3.4.9",
  "updatedAt": "2022-09-01T17:42:15.565Z",
  "networkType": "ethereum",
  "devdoc": {
    "kind": "dev",
    "methods": {
      "approve(address,uint256)": {
        "details": "See {IERC721-approve}."
      },
      "balanceOf(address)": {
        "details": "See {IERC721-balanceOf}."
      },
      "getApproved(uint256)": {
        "details": "See {IERC721-getApproved}."
      },
      "isApprovedForAll(address,address)": {
        "details": "See {IERC721-isApprovedForAll}."
      },
      "name()": {
        "details": "See {IERC721Metadata-name}."
      },
      "ownerOf(uint256)": {
        "details": "See {IERC721-ownerOf}."
      },
      "safeTransferFrom(address,address,uint256)": {
        "details": "See {IERC721-safeTransferFrom}."
      },
      "safeTransferFrom(address,address,uint256,bytes)": {
        "details": "See {IERC721-safeTransferFrom}."
      },
      "setApprovalForAll(address,bool)": {
        "details": "See {IERC721-setApprovalForAll}."
      },
      "supportsInterface(bytes4)": {
        "details": "See {IERC165-supportsInterface}."
      },
      "symbol()": {
        "details": "See {IERC721Metadata-symbol}."
      },
      "tokenURI(uint256)": {
        "details": "See {IERC721Metadata-tokenURI}."
      },
      "transferFrom(address,address,uint256)": {
        "details": "See {IERC721-transferFrom}."
      }
    },
    "version": 1
  },
  "userdoc": {
    "kind": "user",
    "methods": {},
    "version": 1
  }
}